{
  "_format": "hh-sol-artifact-1",
  "contractName": "Token",
  "sourceName": "contracts/Token.sol",
  "abi": [
    {
      "anonymous": false,
      "inputs": [
        {
          "indexed": true,
          "internalType": "address",
          "name": "owner",
          "type": "address"
        },
        {
          "indexed": true,
          "internalType": "address",
          "name": "approved",
          "type": "address"
        },
        {
          "indexed": true,
          "internalType": "uint256",
          "name": "tokenId",
          "type": "uint256"
        }
      ],
      "name": "Approval",
      "type": "event"
    },
    {
      "anonymous": false,
      "inputs": [
        {
          "indexed": true,
          "internalType": "address",
          "name": "owner",
          "type": "address"
        },
        {
          "indexed": true,
          "internalType": "address",
          "name": "operator",
          "type": "address"
        },
        {
          "indexed": false,
          "internalType": "bool",
          "name": "approved",
          "type": "bool"
        }
      ],
      "name": "ApprovalForAll",
      "type": "event"
    },
    {
      "anonymous": false,
      "inputs": [
        {
          "indexed": false,
          "internalType": "uint8",
          "name": "version",
          "type": "uint8"
        }
      ],
      "name": "Initialized",
      "type": "event"
    },
    {
      "anonymous": false,
      "inputs": [
        {
          "indexed": true,
          "internalType": "address",
          "name": "previousOwner",
          "type": "address"
        },
        {
          "indexed": true,
          "internalType": "address",
          "name": "newOwner",
          "type": "address"
        }
      ],
      "name": "OwnershipTransferred",
      "type": "event"
    },
    {
      "anonymous": false,
      "inputs": [
        {
          "indexed": true,
          "internalType": "address",
          "name": "from",
          "type": "address"
        },
        {
          "indexed": true,
          "internalType": "address",
          "name": "to",
          "type": "address"
        },
        {
          "indexed": true,
          "internalType": "uint256",
          "name": "tokenId",
          "type": "uint256"
        }
      ],
      "name": "Transfer",
      "type": "event"
    },
    {
      "inputs": [
        {
          "internalType": "address",
          "name": "to",
          "type": "address"
        },
        {
          "internalType": "uint256",
          "name": "tokenId",
          "type": "uint256"
        }
      ],
      "name": "approve",
      "outputs": [],
      "stateMutability": "nonpayable",
      "type": "function"
    },
    {
      "inputs": [
        {
          "internalType": "address",
          "name": "owner",
          "type": "address"
        }
      ],
      "name": "balanceOf",
      "outputs": [
        {
          "internalType": "uint256",
          "name": "",
          "type": "uint256"
        }
      ],
      "stateMutability": "view",
      "type": "function"
    },
    {
      "inputs": [
        {
          "internalType": "address",
          "name": "_user",
          "type": "address"
        },
        {
          "internalType": "uint256",
          "name": "_serialNumber",
          "type": "uint256"
        }
      ],
      "name": "blacklist",
      "outputs": [],
      "stateMutability": "nonpayable",
      "type": "function"
    },
    {
      "inputs": [
        {
          "internalType": "uint256",
          "name": "_serialNumber",
          "type": "uint256"
        }
      ],
      "name": "burn",
      "outputs": [],
      "stateMutability": "nonpayable",
      "type": "function"
    },
    {
      "inputs": [
        {
          "internalType": "uint256",
          "name": "tokenId",
          "type": "uint256"
        }
      ],
      "name": "getApproved",
      "outputs": [
        {
          "internalType": "address",
          "name": "",
          "type": "address"
        }
      ],
      "stateMutability": "view",
      "type": "function"
    },
    {
      "inputs": [
        {
          "internalType": "uint256",
          "name": "tokenId",
          "type": "uint256"
        }
      ],
      "name": "getListing",
      "outputs": [
        {
          "components": [
            {
              "internalType": "uint256",
              "name": "min",
              "type": "uint256"
            },
            {
              "internalType": "uint256",
              "name": "max",
              "type": "uint256"
            }
          ],
          "internalType": "struct IToken.Listing",
          "name": "",
          "type": "tuple"
        }
      ],
      "stateMutability": "view",
      "type": "function"
    },
    {
      "inputs": [
        {
          "internalType": "address",
          "name": "_user",
          "type": "address"
        },
        {
          "internalType": "uint256",
          "name": "_serialNumber",
          "type": "uint256"
        }
      ],
      "name": "getWhitelist",
      "outputs": [
        {
          "internalType": "bool",
          "name": "",
          "type": "bool"
        }
      ],
      "stateMutability": "view",
      "type": "function"
    },
    {
      "inputs": [
        {
          "internalType": "string",
          "name": "name",
          "type": "string"
        },
        {
          "internalType": "string",
          "name": "symbol",
          "type": "string"
        }
      ],
      "name": "initialize",
      "outputs": [],
      "stateMutability": "nonpayable",
      "type": "function"
    },
    {
      "inputs": [
        {
          "internalType": "address",
          "name": "owner",
          "type": "address"
        },
        {
          "internalType": "address",
          "name": "operator",
          "type": "address"
        }
      ],
      "name": "isApprovedForAll",
      "outputs": [
        {
          "internalType": "bool",
          "name": "",
          "type": "bool"
        }
      ],
      "stateMutability": "view",
      "type": "function"
    },
    {
      "inputs": [],
      "name": "market",
      "outputs": [
        {
          "internalType": "address",
          "name": "",
          "type": "address"
        }
      ],
      "stateMutability": "view",
      "type": "function"
    },
    {
      "inputs": [
        {
          "internalType": "uint256",
          "name": "_serialNumber",
          "type": "uint256"
        },
        {
          "internalType": "string",
          "name": "_uri",
          "type": "string"
        },
        {
          "internalType": "uint256",
          "name": "minPrice",
          "type": "uint256"
        },
        {
          "internalType": "uint256",
          "name": "maxPrice",
          "type": "uint256"
        }
      ],
      "name": "mint",
      "outputs": [],
      "stateMutability": "payable",
      "type": "function"
    },
    {
      "inputs": [],
      "name": "name",
      "outputs": [
        {
          "internalType": "string",
          "name": "",
          "type": "string"
        }
      ],
      "stateMutability": "view",
      "type": "function"
    },
    {
      "inputs": [],
      "name": "owner",
      "outputs": [
        {
          "internalType": "address",
          "name": "",
          "type": "address"
        }
      ],
      "stateMutability": "view",
      "type": "function"
    },
    {
      "inputs": [
        {
          "internalType": "uint256",
          "name": "tokenId",
          "type": "uint256"
        }
      ],
      "name": "ownerOf",
      "outputs": [
        {
          "internalType": "address",
          "name": "",
          "type": "address"
        }
      ],
      "stateMutability": "view",
      "type": "function"
    },
    {
      "inputs": [],
      "name": "renounceOwnership",
      "outputs": [],
      "stateMutability": "nonpayable",
      "type": "function"
    },
    {
      "inputs": [
        {
          "internalType": "address",
          "name": "from",
          "type": "address"
        },
        {
          "internalType": "address",
          "name": "to",
          "type": "address"
        },
        {
          "internalType": "uint256",
          "name": "tokenId",
          "type": "uint256"
        }
      ],
      "name": "safeTransferFrom",
      "outputs": [],
      "stateMutability": "nonpayable",
      "type": "function"
    },
    {
      "inputs": [
        {
          "internalType": "address",
          "name": "from",
          "type": "address"
        },
        {
          "internalType": "address",
          "name": "to",
          "type": "address"
        },
        {
          "internalType": "uint256",
          "name": "tokenId",
          "type": "uint256"
        },
        {
          "internalType": "bytes",
          "name": "_data",
          "type": "bytes"
        }
      ],
      "name": "safeTransferFrom",
      "outputs": [],
      "stateMutability": "nonpayable",
      "type": "function"
    },
    {
      "inputs": [
        {
          "internalType": "address",
          "name": "operator",
          "type": "address"
        },
        {
          "internalType": "bool",
          "name": "approved",
          "type": "bool"
        }
      ],
      "name": "setApprovalForAll",
      "outputs": [],
      "stateMutability": "nonpayable",
      "type": "function"
    },
    {
      "inputs": [
        {
          "internalType": "address",
          "name": "_market",
          "type": "address"
        }
      ],
      "name": "setMarket",
      "outputs": [],
      "stateMutability": "nonpayable",
      "type": "function"
    },
    {
      "inputs": [
        {
          "internalType": "bytes4",
          "name": "interfaceId",
          "type": "bytes4"
        }
      ],
      "name": "supportsInterface",
      "outputs": [
        {
          "internalType": "bool",
          "name": "",
          "type": "bool"
        }
      ],
      "stateMutability": "view",
      "type": "function"
    },
    {
      "inputs": [],
      "name": "symbol",
      "outputs": [
        {
          "internalType": "string",
          "name": "",
          "type": "string"
        }
      ],
      "stateMutability": "view",
      "type": "function"
    },
    {
      "inputs": [
        {
          "internalType": "uint256",
          "name": "tokenId",
          "type": "uint256"
        }
      ],
      "name": "tokenURI",
      "outputs": [
        {
          "internalType": "string",
          "name": "",
          "type": "string"
        }
      ],
      "stateMutability": "view",
      "type": "function"
    },
    {
      "inputs": [
        {
          "internalType": "address",
          "name": "from",
          "type": "address"
        },
        {
          "internalType": "address",
          "name": "to",
          "type": "address"
        },
        {
          "internalType": "uint256",
          "name": "tokenId",
          "type": "uint256"
        }
      ],
      "name": "transferFrom",
      "outputs": [],
      "stateMutability": "nonpayable",
      "type": "function"
    },
    {
      "inputs": [
        {
          "internalType": "address",
          "name": "newOwner",
          "type": "address"
        }
      ],
      "name": "transferOwnership",
      "outputs": [],
      "stateMutability": "nonpayable",
      "type": "function"
    },
    {
      "inputs": [
        {
          "internalType": "address",
          "name": "_user",
          "type": "address"
        },
        {
          "internalType": "uint256",
          "name": "_serialNumber",
          "type": "uint256"
        }
      ],
      "name": "whitelist",
      "outputs": [],
      "stateMutability": "nonpayable",
      "type": "function"
    }
  ],
  "bytecode": "0x608060405234801561001057600080fd5b5061428b806100206000396000f3fe6080604052600436106101665760003560e01c80636dcea85f116100d157806398fc55d81161008a578063c87b56dd11610064578063c87b56dd14610536578063dd1ccc8614610573578063e985e9c51461058f578063f2fde38b146105cc57610166565b806398fc55d8146104bb578063a22cb465146104e4578063b88d4fde1461050d57610166565b80636dcea85f146103bd57806370a08231146103e6578063715018a61461042357806380f556051461043a5780638da5cb5b1461046557806395d89b411461049057610166565b80631e47a173116101235780631e47a1731461029f57806323b872dd146102dc57806342842e0e1461030557806342966c681461032e5780634cd88b76146103575780636352211e1461038057610166565b806301ffc9a71461016b57806306fdde03146101a8578063081812fc146101d3578063095ea7b3146102105780631074bce514610239578063107a274a14610262575b600080fd5b34801561017757600080fd5b50610192600480360381019061018d9190612d62565b6105f5565b60405161019f91906133d6565b60405180910390f35b3480156101b457600080fd5b506101bd610607565b6040516101ca919061340c565b60405180910390f35b3480156101df57600080fd5b506101fa60048036038101906101f59190612e29565b610699565b604051610207919061336f565b60405180910390f35b34801561021c57600080fd5b5061023760048036038101906102329190612d26565b61071e565b005b34801561024557600080fd5b50610260600480360381019061025b9190612d26565b610836565b005b34801561026e57600080fd5b5061028960048036038101906102849190612e29565b610920565b604051610296919061378e565b60405180910390f35b3480156102ab57600080fd5b506102c660048036038101906102c19190612d26565b6109aa565b6040516102d391906133d6565b60405180910390f35b3480156102e857600080fd5b5061030360048036038101906102fe9190612c20565b610a13565b005b34801561031157600080fd5b5061032c60048036038101906103279190612c20565b610a73565b005b34801561033a57600080fd5b5061035560048036038101906103509190612e29565b610a93565b005b34801561036357600080fd5b5061037e60048036038101906103799190612db4565b610bfb565b005b34801561038c57600080fd5b506103a760048036038101906103a29190612e29565b610d56565b6040516103b4919061336f565b60405180910390f35b3480156103c957600080fd5b506103e460048036038101906103df9190612bbb565b610e08565b005b3480156103f257600080fd5b5061040d60048036038101906104089190612bbb565b610ec9565b60405161041a91906137a9565b60405180910390f35b34801561042f57600080fd5b50610438610f81565b005b34801561044657600080fd5b5061044f611009565b60405161045c919061336f565b60405180910390f35b34801561047157600080fd5b5061047a611030565b604051610487919061336f565b60405180910390f35b34801561049c57600080fd5b506104a561105a565b6040516104b2919061340c565b60405180910390f35b3480156104c757600080fd5b506104e260048036038101906104dd9190612d26565b6110ec565b005b3480156104f057600080fd5b5061050b60048036038101906105069190612cea565b61121f565b005b34801561051957600080fd5b50610534600480360381019061052f9190612c6f565b611235565b005b34801561054257600080fd5b5061055d60048036038101906105589190612e29565b611297565b60405161056a919061340c565b60405180910390f35b61058d60048036038101906105889190612e52565b611385565b005b34801561059b57600080fd5b506105b660048036038101906105b19190612be4565b611601565b6040516105c391906133d6565b60405180910390f35b3480156105d857600080fd5b506105f360048036038101906105ee9190612bbb565b611695565b005b60006106008261178d565b9050919050565b60606065805461061690613a3c565b80601f016020809104026020016040519081016040528092919081815260200182805461064290613a3c565b801561068f5780601f106106645761010080835404028352916020019161068f565b820191906000526020600020905b81548152906001019060200180831161067257829003601f168201915b5050505050905090565b60006106a482611805565b6106e3576040517f08c379a00000000000000000000000000000000000000000000000000000000081526004016106da9061366e565b60405180910390fd5b6069600083815260200190815260200160002060009054906101000a900473ffffffffffffffffffffffffffffffffffffffff169050919050565b600061072982610d56565b90508073ffffffffffffffffffffffffffffffffffffffff168373ffffffffffffffffffffffffffffffffffffffff16141561079a576040517f08c379a0000000000000000000000000000000000000000000000000000000008152600401610791906136ee565b60405180910390fd5b8073ffffffffffffffffffffffffffffffffffffffff166107b9611871565b73ffffffffffffffffffffffffffffffffffffffff1614806107e857506107e7816107e2611871565b611601565b5b610827576040517f08c379a000000000000000000000000000000000000000000000000000000000815260040161081e906135ce565b60405180910390fd5b6108318383611879565b505050565b61083e611871565b73ffffffffffffffffffffffffffffffffffffffff1661085c611030565b73ffffffffffffffffffffffffffffffffffffffff16146108b2576040517f08c379a00000000000000000000000000000000000000000000000000000000081526004016108a99061368e565b60405180910390fd5b600061012d60008473ffffffffffffffffffffffffffffffffffffffff1673ffffffffffffffffffffffffffffffffffffffff168152602001908152602001600020600083815260200190815260200160002060006101000a81548160ff0219169083151502179055505050565b61092861291d565b61093182611805565b610970576040517f08c379a00000000000000000000000000000000000000000000000000000000081526004016109679061342e565b60405180910390fd5b61012f6000838152602001908152602001600020604051806040016040529081600082015481526020016001820154815250509050919050565b600061012d60008473ffffffffffffffffffffffffffffffffffffffff1673ffffffffffffffffffffffffffffffffffffffff168152602001908152602001600020600083815260200190815260200160002060009054906101000a900460ff16905092915050565b610a24610a1e611871565b82611932565b610a63576040517f08c379a0000000000000000000000000000000000000000000000000000000008152600401610a5a9061372e565b60405180910390fd5b610a6e838383611a10565b505050565b610a8e83838360405180602001604052806000815250611235565b505050565b600260fb541415610ad9576040517f08c379a0000000000000000000000000000000000000000000000000000000008152600401610ad09061376e565b60405180910390fd5b600260fb81905550610aea81611805565b610b29576040517f08c379a0000000000000000000000000000000000000000000000000000000008152600401610b209061342e565b60405180910390fd5b61012d60003373ffffffffffffffffffffffffffffffffffffffff1673ffffffffffffffffffffffffffffffffffffffff168152602001908152602001600020600082815260200190815260200160002060009054906101000a900460ff16610bc7576040517f08c379a0000000000000000000000000000000000000000000000000000000008152600401610bbe9061356e565b60405180910390fd5b610bd081611c77565b61012e60008281526020019081526020016000206000610bf09190612937565b600160fb8190555050565b6000610c076001611d94565b90508015610c2b576001600060016101000a81548160ff0219169083151502179055505b610cbd85858080601f016020809104026020016040519081016040528093929190818152602001838380828437600081840152601f19601f8201169050808301925050505050505084848080601f016020809104026020016040519081016040528093929190818152602001838380828437600081840152601f19601f82011690508083019250505050505050611e84565b610cc5611ee1565b610cee7f55e7449c00000000000000000000000000000000000000000000000000000000611f3a565b610cf6612010565b8015610d4f5760008060016101000a81548160ff0219169083151502179055507f7f26b83ff96e1f2b6a682f133852f6798a09c465da95921460cefb38474024986001604051610d4691906133f1565b60405180910390a15b5050505050565b6000806067600084815260200190815260200160002060009054906101000a900473ffffffffffffffffffffffffffffffffffffffff169050600073ffffffffffffffffffffffffffffffffffffffff168173ffffffffffffffffffffffffffffffffffffffff161415610dff576040517f08c379a0000000000000000000000000000000000000000000000000000000008152600401610df69061360e565b60405180910390fd5b80915050919050565b610e10611871565b73ffffffffffffffffffffffffffffffffffffffff16610e2e611030565b73ffffffffffffffffffffffffffffffffffffffff1614610e84576040517f08c379a0000000000000000000000000000000000000000000000000000000008152600401610e7b9061368e565b60405180910390fd5b8061013060006101000a81548173ffffffffffffffffffffffffffffffffffffffff021916908373ffffffffffffffffffffffffffffffffffffffff16021790555050565b60008073ffffffffffffffffffffffffffffffffffffffff168273ffffffffffffffffffffffffffffffffffffffff161415610f3a576040517f08c379a0000000000000000000000000000000000000000000000000000000008152600401610f31906135ee565b60405180910390fd5b606860008373ffffffffffffffffffffffffffffffffffffffff1673ffffffffffffffffffffffffffffffffffffffff168152602001908152602001600020549050919050565b610f89611871565b73ffffffffffffffffffffffffffffffffffffffff16610fa7611030565b73ffffffffffffffffffffffffffffffffffffffff1614610ffd576040517f08c379a0000000000000000000000000000000000000000000000000000000008152600401610ff49061368e565b60405180910390fd5b6110076000612069565b565b61013060009054906101000a900473ffffffffffffffffffffffffffffffffffffffff1681565b6000609760009054906101000a900473ffffffffffffffffffffffffffffffffffffffff16905090565b60606066805461106990613a3c565b80601f016020809104026020016040519081016040528092919081815260200182805461109590613a3c565b80156110e25780601f106110b7576101008083540402835291602001916110e2565b820191906000526020600020905b8154815290600101906020018083116110c557829003601f168201915b5050505050905090565b6110f4611871565b73ffffffffffffffffffffffffffffffffffffffff16611112611030565b73ffffffffffffffffffffffffffffffffffffffff1614611168576040517f08c379a000000000000000000000000000000000000000000000000000000000815260040161115f9061368e565b60405180910390fd5b61117181611805565b156111b1576040517f08c379a00000000000000000000000000000000000000000000000000000000081526004016111a89061344e565b60405180910390fd5b600161012d60008473ffffffffffffffffffffffffffffffffffffffff1673ffffffffffffffffffffffffffffffffffffffff168152602001908152602001600020600083815260200190815260200160002060006101000a81548160ff0219169083151502179055505050565b61123161122a611871565b838361212f565b5050565b611246611240611871565b83611932565b611285576040517f08c379a000000000000000000000000000000000000000000000000000000000815260040161127c9061372e565b60405180910390fd5b6112918484848461229c565b50505050565b60606112a282611805565b6112e1576040517f08c379a00000000000000000000000000000000000000000000000000000000081526004016112d8906136ae565b60405180910390fd5b61012e6000838152602001908152602001600020805461130090613a3c565b80601f016020809104026020016040519081016040528092919081815260200182805461132c90613a3c565b80156113795780601f1061134e57610100808354040283529160200191611379565b820191906000526020600020905b81548152906001019060200180831161135c57829003601f168201915b50505050509050919050565b8461012d60003373ffffffffffffffffffffffffffffffffffffffff1673ffffffffffffffffffffffffffffffffffffffff168152602001908152602001600020600082815260200190815260200160002060009054906101000a900460ff16611424576040517f08c379a000000000000000000000000000000000000000000000000000000000815260040161141b906136ce565b60405180910390fd5b600260fb54141561146a576040517f08c379a00000000000000000000000000000000000000000000000000000000081526004016114619061376e565b60405180910390fd5b600260fb81905550346064600f8461148291906138d9565b61148c91906138a8565b146114cc576040517f08c379a00000000000000000000000000000000000000000000000000000000081526004016114c3906134ee565b60405180910390fd5b6000858590501415611513576040517f08c379a000000000000000000000000000000000000000000000000000000000815260040161150a906135ae565b60405180910390fd5b60008211611556576040517f08c379a000000000000000000000000000000000000000000000000000000000815260040161154d9061370e565b60405180910390fd5b61156033876122f8565b848461012e60008981526020019081526020016000209190611583929190612977565b5060405180604001604052808481526020018381525061012f600088815260200190815260200160002060008201518160000155602082015181600101559050506115f161013060009054906101000a900473ffffffffffffffffffffffffffffffffffffffff168761071e565b600160fb81905550505050505050565b6000606a60008473ffffffffffffffffffffffffffffffffffffffff1673ffffffffffffffffffffffffffffffffffffffff16815260200190815260200160002060008373ffffffffffffffffffffffffffffffffffffffff1673ffffffffffffffffffffffffffffffffffffffff16815260200190815260200160002060009054906101000a900460ff16905092915050565b61169d611871565b73ffffffffffffffffffffffffffffffffffffffff166116bb611030565b73ffffffffffffffffffffffffffffffffffffffff1614611711576040517f08c379a00000000000000000000000000000000000000000000000000000000081526004016117089061368e565b60405180910390fd5b600073ffffffffffffffffffffffffffffffffffffffff168173ffffffffffffffffffffffffffffffffffffffff161415611781576040517f08c379a00000000000000000000000000000000000000000000000000000000081526004016117789061348e565b60405180910390fd5b61178a81612069565b50565b6000611798826124d2565b806117fe575060c96000837bffffffffffffffffffffffffffffffffffffffffffffffffffffffff19167bffffffffffffffffffffffffffffffffffffffffffffffffffffffff1916815260200190815260200160002060009054906101000a900460ff165b9050919050565b60008073ffffffffffffffffffffffffffffffffffffffff166067600084815260200190815260200160002060009054906101000a900473ffffffffffffffffffffffffffffffffffffffff1673ffffffffffffffffffffffffffffffffffffffff1614159050919050565b600033905090565b816069600083815260200190815260200160002060006101000a81548173ffffffffffffffffffffffffffffffffffffffff021916908373ffffffffffffffffffffffffffffffffffffffff160217905550808273ffffffffffffffffffffffffffffffffffffffff166118ec83610d56565b73ffffffffffffffffffffffffffffffffffffffff167f8c5be1e5ebec7d5bd14f71427d1e84f3dd0314c0f7b2291e5b200ac8c7c3b92560405160405180910390a45050565b600061193d82611805565b61197c576040517f08c379a00000000000000000000000000000000000000000000000000000000081526004016119739061358e565b60405180910390fd5b600061198783610d56565b90508073ffffffffffffffffffffffffffffffffffffffff168473ffffffffffffffffffffffffffffffffffffffff1614806119c957506119c88185611601565b5b80611a0757508373ffffffffffffffffffffffffffffffffffffffff166119ef84610699565b73ffffffffffffffffffffffffffffffffffffffff16145b91505092915050565b8273ffffffffffffffffffffffffffffffffffffffff16611a3082610d56565b73ffffffffffffffffffffffffffffffffffffffff1614611a86576040517f08c379a0000000000000000000000000000000000000000000000000000000008152600401611a7d906134ae565b60405180910390fd5b600073ffffffffffffffffffffffffffffffffffffffff168273ffffffffffffffffffffffffffffffffffffffff161415611af6576040517f08c379a0000000000000000000000000000000000000000000000000000000008152600401611aed9061352e565b60405180910390fd5b611b018383836125b4565b611b0c600082611879565b6001606860008573ffffffffffffffffffffffffffffffffffffffff1673ffffffffffffffffffffffffffffffffffffffff1681526020019081526020016000206000828254611b5c9190613933565b925050819055506001606860008473ffffffffffffffffffffffffffffffffffffffff1673ffffffffffffffffffffffffffffffffffffffff1681526020019081526020016000206000828254611bb39190613852565b92505081905550816067600083815260200190815260200160002060006101000a81548173ffffffffffffffffffffffffffffffffffffffff021916908373ffffffffffffffffffffffffffffffffffffffff160217905550808273ffffffffffffffffffffffffffffffffffffffff168473ffffffffffffffffffffffffffffffffffffffff167fddf252ad1be2c89b69c2b068fc378daa952ba7f163c4a11628f55a4df523b3ef60405160405180910390a4611c728383836125b9565b505050565b6000611c8282610d56565b9050611c90816000846125b4565b611c9b600083611879565b6001606860008373ffffffffffffffffffffffffffffffffffffffff1673ffffffffffffffffffffffffffffffffffffffff1681526020019081526020016000206000828254611ceb9190613933565b925050819055506067600083815260200190815260200160002060006101000a81549073ffffffffffffffffffffffffffffffffffffffff021916905581600073ffffffffffffffffffffffffffffffffffffffff168273ffffffffffffffffffffffffffffffffffffffff167fddf252ad1be2c89b69c2b068fc378daa952ba7f163c4a11628f55a4df523b3ef60405160405180910390a4611d90816000846125b9565b5050565b60008060019054906101000a900460ff1615611e0b5760018260ff16148015611dc35750611dc1306125be565b155b611e02576040517f08c379a0000000000000000000000000000000000000000000000000000000008152600401611df99061362e565b60405180910390fd5b60009050611e7f565b8160ff1660008054906101000a900460ff1660ff1610611e60576040517f08c379a0000000000000000000000000000000000000000000000000000000008152600401611e579061362e565b60405180910390fd5b816000806101000a81548160ff021916908360ff160217905550600190505b919050565b600060019054906101000a900460ff16611ed3576040517f08c379a0000000000000000000000000000000000000000000000000000000008152600401611eca9061374e565b60405180910390fd5b611edd82826125e1565b5050565b600060019054906101000a900460ff16611f30576040517f08c379a0000000000000000000000000000000000000000000000000000000008152600401611f279061374e565b60405180910390fd5b611f38612662565b565b63ffffffff60e01b817bffffffffffffffffffffffffffffffffffffffffffffffffffffffff19161415611fa3576040517f08c379a0000000000000000000000000000000000000000000000000000000008152600401611f9a906134ce565b60405180910390fd5b600160c96000837bffffffffffffffffffffffffffffffffffffffffffffffffffffffff19167bffffffffffffffffffffffffffffffffffffffffffffffffffffffff1916815260200190815260200160002060006101000a81548160ff02191690831515021790555050565b600060019054906101000a900460ff1661205f576040517f08c379a00000000000000000000000000000000000000000000000000000000081526004016120569061374e565b60405180910390fd5b6120676126c3565b565b6000609760009054906101000a900473ffffffffffffffffffffffffffffffffffffffff16905081609760006101000a81548173ffffffffffffffffffffffffffffffffffffffff021916908373ffffffffffffffffffffffffffffffffffffffff1602179055508173ffffffffffffffffffffffffffffffffffffffff168173ffffffffffffffffffffffffffffffffffffffff167f8be0079c531659141344cd1fd0a4f28419497f9722a3daafe3b4186f6b6457e060405160405180910390a35050565b8173ffffffffffffffffffffffffffffffffffffffff168373ffffffffffffffffffffffffffffffffffffffff16141561219e576040517f08c379a00000000000000000000000000000000000000000000000000000000081526004016121959061354e565b60405180910390fd5b80606a60008573ffffffffffffffffffffffffffffffffffffffff1673ffffffffffffffffffffffffffffffffffffffff16815260200190815260200160002060008473ffffffffffffffffffffffffffffffffffffffff1673ffffffffffffffffffffffffffffffffffffffff16815260200190815260200160002060006101000a81548160ff0219169083151502179055508173ffffffffffffffffffffffffffffffffffffffff168373ffffffffffffffffffffffffffffffffffffffff167f17307eab39ab6107e8899845ad3d59bd9653f200f220920489ca2b5937696c318360405161228f91906133d6565b60405180910390a3505050565b6122a7848484611a10565b6122b38484848461271c565b6122f2576040517f08c379a00000000000000000000000000000000000000000000000000000000081526004016122e99061346e565b60405180910390fd5b50505050565b600073ffffffffffffffffffffffffffffffffffffffff168273ffffffffffffffffffffffffffffffffffffffff161415612368576040517f08c379a000000000000000000000000000000000000000000000000000000000815260040161235f9061364e565b60405180910390fd5b61237181611805565b156123b1576040517f08c379a00000000000000000000000000000000000000000000000000000000081526004016123a89061350e565b60405180910390fd5b6123bd600083836125b4565b6001606860008473ffffffffffffffffffffffffffffffffffffffff1673ffffffffffffffffffffffffffffffffffffffff168152602001908152602001600020600082825461240d9190613852565b92505081905550816067600083815260200190815260200160002060006101000a81548173ffffffffffffffffffffffffffffffffffffffff021916908373ffffffffffffffffffffffffffffffffffffffff160217905550808273ffffffffffffffffffffffffffffffffffffffff16600073ffffffffffffffffffffffffffffffffffffffff167fddf252ad1be2c89b69c2b068fc378daa952ba7f163c4a11628f55a4df523b3ef60405160405180910390a46124ce600083836125b9565b5050565b60007f80ac58cd000000000000000000000000000000000000000000000000000000007bffffffffffffffffffffffffffffffffffffffffffffffffffffffff1916827bffffffffffffffffffffffffffffffffffffffffffffffffffffffff1916148061259d57507f5b5e139f000000000000000000000000000000000000000000000000000000007bffffffffffffffffffffffffffffffffffffffffffffffffffffffff1916827bffffffffffffffffffffffffffffffffffffffffffffffffffffffff1916145b806125ad57506125ac826128b3565b5b9050919050565b505050565b505050565b6000808273ffffffffffffffffffffffffffffffffffffffff163b119050919050565b600060019054906101000a900460ff16612630576040517f08c379a00000000000000000000000000000000000000000000000000000000081526004016126279061374e565b60405180910390fd5b81606590805190602001906126469291906129fd565b50806066908051906020019061265d9291906129fd565b505050565b600060019054906101000a900460ff166126b1576040517f08c379a00000000000000000000000000000000000000000000000000000000081526004016126a89061374e565b60405180910390fd5b6126c16126bc611871565b612069565b565b600060019054906101000a900460ff16612712576040517f08c379a00000000000000000000000000000000000000000000000000000000081526004016127099061374e565b60405180910390fd5b600160fb81905550565b600061273d8473ffffffffffffffffffffffffffffffffffffffff166125be565b156128a6578373ffffffffffffffffffffffffffffffffffffffff1663150b7a02612766611871565b8786866040518563ffffffff1660e01b8152600401612788949392919061338a565b602060405180830381600087803b1580156127a257600080fd5b505af19250505080156127d357506040513d601f19601f820116820180604052508101906127d09190612d8b565b60015b612856573d8060008114612803576040519150601f19603f3d011682016040523d82523d6000602084013e612808565b606091505b5060008151141561284e576040517f08c379a00000000000000000000000000000000000000000000000000000000081526004016128459061346e565b60405180910390fd5b805181602001fd5b63150b7a0260e01b7bffffffffffffffffffffffffffffffffffffffffffffffffffffffff1916817bffffffffffffffffffffffffffffffffffffffffffffffffffffffff1916149150506128ab565b600190505b949350505050565b60007f01ffc9a7000000000000000000000000000000000000000000000000000000007bffffffffffffffffffffffffffffffffffffffffffffffffffffffff1916827bffffffffffffffffffffffffffffffffffffffffffffffffffffffff1916149050919050565b604051806040016040528060008152602001600081525090565b50805461294390613a3c565b6000825580601f106129555750612974565b601f0160209004906000526020600020908101906129739190612a83565b5b50565b82805461298390613a3c565b90600052602060002090601f0160209004810192826129a557600085556129ec565b82601f106129be57803560ff19168380011785556129ec565b828001600101855582156129ec579182015b828111156129eb5782358255916020019190600101906129d0565b5b5090506129f99190612a83565b5090565b828054612a0990613a3c565b90600052602060002090601f016020900481019282612a2b5760008555612a72565b82601f10612a4457805160ff1916838001178555612a72565b82800160010185558215612a72579182015b82811115612a71578251825591602001919060010190612a56565b5b509050612a7f9190612a83565b5090565b5b80821115612a9c576000816000905550600101612a84565b5090565b6000612ab3612aae846137e9565b6137c4565b905082815260208101848484011115612acb57600080fd5b612ad68482856139fa565b509392505050565b600081359050612aed816141f9565b92915050565b600081359050612b0281614210565b92915050565b600081359050612b1781614227565b92915050565b600081519050612b2c81614227565b92915050565b600082601f830112612b4357600080fd5b8135612b53848260208601612aa0565b91505092915050565b60008083601f840112612b6e57600080fd5b8235905067ffffffffffffffff811115612b8757600080fd5b602083019150836001820283011115612b9f57600080fd5b9250929050565b600081359050612bb58161423e565b92915050565b600060208284031215612bcd57600080fd5b6000612bdb84828501612ade565b91505092915050565b60008060408385031215612bf757600080fd5b6000612c0585828601612ade565b9250506020612c1685828601612ade565b9150509250929050565b600080600060608486031215612c3557600080fd5b6000612c4386828701612ade565b9350506020612c5486828701612ade565b9250506040612c6586828701612ba6565b9150509250925092565b60008060008060808587031215612c8557600080fd5b6000612c9387828801612ade565b9450506020612ca487828801612ade565b9350506040612cb587828801612ba6565b925050606085013567ffffffffffffffff811115612cd257600080fd5b612cde87828801612b32565b91505092959194509250565b60008060408385031215612cfd57600080fd5b6000612d0b85828601612ade565b9250506020612d1c85828601612af3565b9150509250929050565b60008060408385031215612d3957600080fd5b6000612d4785828601612ade565b9250506020612d5885828601612ba6565b9150509250929050565b600060208284031215612d7457600080fd5b6000612d8284828501612b08565b91505092915050565b600060208284031215612d9d57600080fd5b6000612dab84828501612b1d565b91505092915050565b60008060008060408587031215612dca57600080fd5b600085013567ffffffffffffffff811115612de457600080fd5b612df087828801612b5c565b9450945050602085013567ffffffffffffffff811115612e0f57600080fd5b612e1b87828801612b5c565b925092505092959194509250565b600060208284031215612e3b57600080fd5b6000612e4984828501612ba6565b91505092915050565b600080600080600060808688031215612e6a57600080fd5b6000612e7888828901612ba6565b955050602086013567ffffffffffffffff811115612e9557600080fd5b612ea188828901612b5c565b94509450506040612eb488828901612ba6565b9250506060612ec588828901612ba6565b9150509295509295909350565b612edb81613967565b82525050565b612eea81613979565b82525050565b6000612efb8261381a565b612f058185613830565b9350612f15818560208601613a09565b612f1e81613b5b565b840191505092915050565b612f32816139e8565b82525050565b6000612f4382613825565b612f4d8185613841565b9350612f5d818560208601613a09565b612f6681613b5b565b840191505092915050565b6000612f7e601883613841565b9150612f8982613b6c565b602082019050919050565b6000612fa1603383613841565b9150612fac82613b95565b604082019050919050565b6000612fc4603283613841565b9150612fcf82613be4565b604082019050919050565b6000612fe7602683613841565b9150612ff282613c33565b604082019050919050565b600061300a602583613841565b915061301582613c82565b604082019050919050565b600061302d601c83613841565b915061303882613cd1565b602082019050919050565b6000613050602083613841565b915061305b82613cfa565b602082019050919050565b6000613073601c83613841565b915061307e82613d23565b602082019050919050565b6000613096602483613841565b91506130a182613d4c565b604082019050919050565b60006130b9601983613841565b91506130c482613d9b565b602082019050919050565b60006130dc602083613841565b91506130e782613dc4565b602082019050919050565b60006130ff602c83613841565b915061310a82613ded565b604082019050919050565b6000613122601283613841565b915061312d82613e3c565b602082019050919050565b6000613145603883613841565b915061315082613e65565b604082019050919050565b6000613168602a83613841565b915061317382613eb4565b604082019050919050565b600061318b602983613841565b915061319682613f03565b604082019050919050565b60006131ae602e83613841565b91506131b982613f52565b604082019050919050565b60006131d1602083613841565b91506131dc82613fa1565b602082019050919050565b60006131f4602c83613841565b91506131ff82613fca565b604082019050919050565b6000613217602083613841565b915061322282614019565b602082019050919050565b600061323a602f83613841565b915061324582614042565b604082019050919050565b600061325d601683613841565b915061326882614091565b602082019050919050565b6000613280602183613841565b915061328b826140ba565b604082019050919050565b60006132a3601483613841565b91506132ae82614109565b602082019050919050565b60006132c6603183613841565b91506132d182614132565b604082019050919050565b60006132e9602b83613841565b91506132f482614181565b604082019050919050565b600061330c601f83613841565b9150613317826141d0565b602082019050919050565b6040820160008201516133386000850182613351565b50602082015161334b6020850182613351565b50505050565b61335a816139d1565b82525050565b613369816139d1565b82525050565b60006020820190506133846000830184612ed2565b92915050565b600060808201905061339f6000830187612ed2565b6133ac6020830186612ed2565b6133b96040830185613360565b81810360608301526133cb8184612ef0565b905095945050505050565b60006020820190506133eb6000830184612ee1565b92915050565b60006020820190506134066000830184612f29565b92915050565b600060208201905081810360008301526134268184612f38565b905092915050565b6000602082019050818103600083015261344781612f71565b9050919050565b6000602082019050818103600083015261346781612f94565b9050919050565b6000602082019050818103600083015261348781612fb7565b9050919050565b600060208201905081810360008301526134a781612fda565b9050919050565b600060208201905081810360008301526134c781612ffd565b9050919050565b600060208201905081810360008301526134e781613020565b9050919050565b6000602082019050818103600083015261350781613043565b9050919050565b6000602082019050818103600083015261352781613066565b9050919050565b6000602082019050818103600083015261354781613089565b9050919050565b60006020820190508181036000830152613567816130ac565b9050919050565b60006020820190508181036000830152613587816130cf565b9050919050565b600060208201905081810360008301526135a7816130f2565b9050919050565b600060208201905081810360008301526135c781613115565b9050919050565b600060208201905081810360008301526135e781613138565b9050919050565b600060208201905081810360008301526136078161315b565b9050919050565b600060208201905081810360008301526136278161317e565b9050919050565b60006020820190508181036000830152613647816131a1565b9050919050565b60006020820190508181036000830152613667816131c4565b9050919050565b60006020820190508181036000830152613687816131e7565b9050919050565b600060208201905081810360008301526136a78161320a565b9050919050565b600060208201905081810360008301526136c78161322d565b9050919050565b600060208201905081810360008301526136e781613250565b9050919050565b6000602082019050818103600083015261370781613273565b9050919050565b6000602082019050818103600083015261372781613296565b9050919050565b60006020820190508181036000830152613747816132b9565b9050919050565b60006020820190508181036000830152613767816132dc565b9050919050565b60006020820190508181036000830152613787816132ff565b9050919050565b60006040820190506137a36000830184613322565b92915050565b60006020820190506137be6000830184613360565b92915050565b60006137ce6137df565b90506137da8282613a6e565b919050565b6000604051905090565b600067ffffffffffffffff82111561380457613803613b2c565b5b61380d82613b5b565b9050602081019050919050565b600081519050919050565b600081519050919050565b600082825260208201905092915050565b600082825260208201905092915050565b600061385d826139d1565b9150613868836139d1565b9250827fffffffffffffffffffffffffffffffffffffffffffffffffffffffffffffffff0382111561389d5761389c613a9f565b5b828201905092915050565b60006138b3826139d1565b91506138be836139d1565b9250826138ce576138cd613ace565b5b828204905092915050565b60006138e4826139d1565b91506138ef836139d1565b9250817fffffffffffffffffffffffffffffffffffffffffffffffffffffffffffffffff048311821515161561392857613927613a9f565b5b828202905092915050565b600061393e826139d1565b9150613949836139d1565b92508282101561395c5761395b613a9f565b5b828203905092915050565b6000613972826139b1565b9050919050565b60008115159050919050565b60007fffffffff0000000000000000000000000000000000000000000000000000000082169050919050565b600073ffffffffffffffffffffffffffffffffffffffff82169050919050565b6000819050919050565b600060ff82169050919050565b60006139f3826139db565b9050919050565b82818337600083830152505050565b60005b83811015613a27578082015181840152602081019050613a0c565b83811115613a36576000848401525b50505050565b60006002820490506001821680613a5457607f821691505b60208210811415613a6857613a67613afd565b5b50919050565b613a7782613b5b565b810181811067ffffffffffffffff82111715613a9657613a95613b2c565b5b80604052505050565b7f4e487b7100000000000000000000000000000000000000000000000000000000600052601160045260246000fd5b7f4e487b7100000000000000000000000000000000000000000000000000000000600052601260045260246000fd5b7f4e487b7100000000000000000000000000000000000000000000000000000000600052602260045260246000fd5b7f4e487b7100000000000000000000000000000000000000000000000000000000600052604160045260246000fd5b6000601f19601f8301169050919050565b7f546f6b656e3a206e6f6e6578697374656e7420746f6b656e0000000000000000600082015250565b7f546f6b656e3a20746f6b656e207769746820746869732073657269616c206e7560008201527f6d62657220616c72656164792065786973747300000000000000000000000000602082015250565b7f4552433732313a207472616e7366657220746f206e6f6e20455243373231526560008201527f63656976657220696d706c656d656e7465720000000000000000000000000000602082015250565b7f4f776e61626c653a206e6577206f776e657220697320746865207a65726f206160008201527f6464726573730000000000000000000000000000000000000000000000000000602082015250565b7f4552433732313a207472616e736665722066726f6d20696e636f72726563742060008201527f6f776e6572000000000000000000000000000000000000000000000000000000602082015250565b7f4552433136353a20696e76616c696420696e7465726661636520696400000000600082015250565b7f546f6b656e3a20696e73756666696369656e7420706c6174666f726d20666565600082015250565b7f4552433732313a20746f6b656e20616c7265616479206d696e74656400000000600082015250565b7f4552433732313a207472616e7366657220746f20746865207a65726f2061646460008201527f7265737300000000000000000000000000000000000000000000000000000000602082015250565b7f4552433732313a20617070726f766520746f2063616c6c657200000000000000600082015250565b7f546f6b656e3a206f6e6c79207468652063726561746f722063616e206275726e600082015250565b7f4552433732313a206f70657261746f7220717565727920666f72206e6f6e657860008201527f697374656e7420746f6b656e0000000000000000000000000000000000000000602082015250565b7f546f6b656e3a20696e76616c6964205552490000000000000000000000000000600082015250565b7f4552433732313a20617070726f76652063616c6c6572206973206e6f74206f7760008201527f6e6572206e6f7220617070726f76656420666f7220616c6c0000000000000000602082015250565b7f4552433732313a2062616c616e636520717565727920666f7220746865207a6560008201527f726f206164647265737300000000000000000000000000000000000000000000602082015250565b7f4552433732313a206f776e657220717565727920666f72206e6f6e657869737460008201527f656e7420746f6b656e0000000000000000000000000000000000000000000000602082015250565b7f496e697469616c697a61626c653a20636f6e747261637420697320616c72656160008201527f647920696e697469616c697a6564000000000000000000000000000000000000602082015250565b7f4552433732313a206d696e7420746f20746865207a65726f2061646472657373600082015250565b7f4552433732313a20617070726f76656420717565727920666f72206e6f6e657860008201527f697374656e7420746f6b656e0000000000000000000000000000000000000000602082015250565b7f4f776e61626c653a2063616c6c6572206973206e6f7420746865206f776e6572600082015250565b7f4552433732314d657461646174613a2055524920717565727920666f72206e6f60008201527f6e6578697374656e7420746f6b656e0000000000000000000000000000000000602082015250565b7f546f6b656e3a206e6f742077686974656c697374656400000000000000000000600082015250565b7f4552433732313a20617070726f76616c20746f2063757272656e74206f776e6560008201527f7200000000000000000000000000000000000000000000000000000000000000602082015250565b7f546f6b656e3a20696e76616c6964207072696365000000000000000000000000600082015250565b7f4552433732313a207472616e736665722063616c6c6572206973206e6f74206f60008201527f776e6572206e6f7220617070726f766564000000000000000000000000000000602082015250565b7f496e697469616c697a61626c653a20636f6e7472616374206973206e6f74206960008201527f6e697469616c697a696e67000000000000000000000000000000000000000000602082015250565b7f5265656e7472616e637947756172643a207265656e7472616e742063616c6c00600082015250565b61420281613967565b811461420d57600080fd5b50565b61421981613979565b811461422457600080fd5b50565b61423081613985565b811461423b57600080fd5b50565b614247816139d1565b811461425257600080fd5b5056fea26469706673582212209a3b60acdf250c29f4ff8f2045febc4bf14fac2880681e5838c86e8025e5b80a64736f6c63430008040033",
  "linkReferences": {},
  "deployedLinkReferences": {}
}