{
  "_format": "hh-sol-artifact-1",
  "contractName": "Token",
  "sourceName": "contracts/Token.sol",
  "abi": [
    {
      "anonymous": false,
      "inputs": [
        {
          "indexed": true,
          "internalType": "address",
          "name": "owner",
          "type": "address"
        },
        {
          "indexed": true,
          "internalType": "address",
          "name": "approved",
          "type": "address"
        },
        {
          "indexed": true,
          "internalType": "uint256",
          "name": "tokenId",
          "type": "uint256"
        }
      ],
      "name": "Approval",
      "type": "event"
    },
    {
      "anonymous": false,
      "inputs": [
        {
          "indexed": true,
          "internalType": "address",
          "name": "owner",
          "type": "address"
        },
        {
          "indexed": true,
          "internalType": "address",
          "name": "operator",
          "type": "address"
        },
        {
          "indexed": false,
          "internalType": "bool",
          "name": "approved",
          "type": "bool"
        }
      ],
      "name": "ApprovalForAll",
      "type": "event"
    },
    {
      "anonymous": false,
      "inputs": [
        {
          "indexed": false,
          "internalType": "uint8",
          "name": "version",
          "type": "uint8"
        }
      ],
      "name": "Initialized",
      "type": "event"
    },
    {
      "anonymous": false,
      "inputs": [
        {
          "indexed": true,
          "internalType": "address",
          "name": "previousOwner",
          "type": "address"
        },
        {
          "indexed": true,
          "internalType": "address",
          "name": "newOwner",
          "type": "address"
        }
      ],
      "name": "OwnershipTransferred",
      "type": "event"
    },
    {
      "anonymous": false,
      "inputs": [
        {
          "indexed": true,
          "internalType": "address",
          "name": "from",
          "type": "address"
        },
        {
          "indexed": true,
          "internalType": "address",
          "name": "to",
          "type": "address"
        },
        {
          "indexed": true,
          "internalType": "uint256",
          "name": "tokenId",
          "type": "uint256"
        }
      ],
      "name": "Transfer",
      "type": "event"
    },
    {
      "inputs": [
        {
          "internalType": "address",
          "name": "to",
          "type": "address"
        },
        {
          "internalType": "uint256",
          "name": "tokenId",
          "type": "uint256"
        }
      ],
      "name": "approve",
      "outputs": [],
      "stateMutability": "nonpayable",
      "type": "function"
    },
    {
      "inputs": [
        {
          "internalType": "address",
          "name": "owner",
          "type": "address"
        }
      ],
      "name": "balanceOf",
      "outputs": [
        {
          "internalType": "uint256",
          "name": "",
          "type": "uint256"
        }
      ],
      "stateMutability": "view",
      "type": "function"
    },
    {
      "inputs": [
        {
          "internalType": "uint256",
          "name": "tokenId",
          "type": "uint256"
        }
      ],
      "name": "getApproved",
      "outputs": [
        {
          "internalType": "address",
          "name": "",
          "type": "address"
        }
      ],
      "stateMutability": "view",
      "type": "function"
    },
    {
      "inputs": [
        {
          "internalType": "string",
          "name": "name",
          "type": "string"
        },
        {
          "internalType": "string",
          "name": "symbol",
          "type": "string"
        },
        {
          "internalType": "string",
          "name": "uri",
          "type": "string"
        }
      ],
      "name": "initialize",
      "outputs": [],
      "stateMutability": "nonpayable",
      "type": "function"
    },
    {
      "inputs": [
        {
          "internalType": "address",
          "name": "owner",
          "type": "address"
        },
        {
          "internalType": "address",
          "name": "operator",
          "type": "address"
        }
      ],
      "name": "isApprovedForAll",
      "outputs": [
        {
          "internalType": "bool",
          "name": "",
          "type": "bool"
        }
      ],
      "stateMutability": "view",
      "type": "function"
    },
    {
      "inputs": [
        {
          "internalType": "uint256",
          "name": "_serialNumber",
          "type": "uint256"
        }
      ],
      "name": "mint",
      "outputs": [],
      "stateMutability": "nonpayable",
      "type": "function"
    },
    {
      "inputs": [],
      "name": "name",
      "outputs": [
        {
          "internalType": "string",
          "name": "",
          "type": "string"
        }
      ],
      "stateMutability": "view",
      "type": "function"
    },
    {
      "inputs": [],
      "name": "owner",
      "outputs": [
        {
          "internalType": "address",
          "name": "",
          "type": "address"
        }
      ],
      "stateMutability": "view",
      "type": "function"
    },
    {
      "inputs": [
        {
          "internalType": "uint256",
          "name": "tokenId",
          "type": "uint256"
        }
      ],
      "name": "ownerOf",
      "outputs": [
        {
          "internalType": "address",
          "name": "",
          "type": "address"
        }
      ],
      "stateMutability": "view",
      "type": "function"
    },
    {
      "inputs": [],
      "name": "renounceOwnership",
      "outputs": [],
      "stateMutability": "nonpayable",
      "type": "function"
    },
    {
      "inputs": [
        {
          "internalType": "address",
          "name": "from",
          "type": "address"
        },
        {
          "internalType": "address",
          "name": "to",
          "type": "address"
        },
        {
          "internalType": "uint256",
          "name": "tokenId",
          "type": "uint256"
        }
      ],
      "name": "safeTransferFrom",
      "outputs": [],
      "stateMutability": "nonpayable",
      "type": "function"
    },
    {
      "inputs": [
        {
          "internalType": "address",
          "name": "from",
          "type": "address"
        },
        {
          "internalType": "address",
          "name": "to",
          "type": "address"
        },
        {
          "internalType": "uint256",
          "name": "tokenId",
          "type": "uint256"
        },
        {
          "internalType": "bytes",
          "name": "_data",
          "type": "bytes"
        }
      ],
      "name": "safeTransferFrom",
      "outputs": [],
      "stateMutability": "nonpayable",
      "type": "function"
    },
    {
      "inputs": [
        {
          "internalType": "address",
          "name": "operator",
          "type": "address"
        },
        {
          "internalType": "bool",
          "name": "approved",
          "type": "bool"
        }
      ],
      "name": "setApprovalForAll",
      "outputs": [],
      "stateMutability": "nonpayable",
      "type": "function"
    },
    {
      "inputs": [
        {
          "internalType": "bytes4",
          "name": "interfaceId",
          "type": "bytes4"
        }
      ],
      "name": "supportsInterface",
      "outputs": [
        {
          "internalType": "bool",
          "name": "",
          "type": "bool"
        }
      ],
      "stateMutability": "view",
      "type": "function"
    },
    {
      "inputs": [],
      "name": "symbol",
      "outputs": [
        {
          "internalType": "string",
          "name": "",
          "type": "string"
        }
      ],
      "stateMutability": "view",
      "type": "function"
    },
    {
      "inputs": [
        {
          "internalType": "uint256",
          "name": "tokenId",
          "type": "uint256"
        }
      ],
      "name": "tokenURI",
      "outputs": [
        {
          "internalType": "string",
          "name": "",
          "type": "string"
        }
      ],
      "stateMutability": "view",
      "type": "function"
    },
    {
      "inputs": [
        {
          "internalType": "address",
          "name": "from",
          "type": "address"
        },
        {
          "internalType": "address",
          "name": "to",
          "type": "address"
        },
        {
          "internalType": "uint256",
          "name": "tokenId",
          "type": "uint256"
        }
      ],
      "name": "transferFrom",
      "outputs": [],
      "stateMutability": "nonpayable",
      "type": "function"
    },
    {
      "inputs": [
        {
          "internalType": "address",
          "name": "newOwner",
          "type": "address"
        }
      ],
      "name": "transferOwnership",
      "outputs": [],
      "stateMutability": "nonpayable",
      "type": "function"
    },
    {
      "inputs": [
        {
          "internalType": "address",
          "name": "_user",
          "type": "address"
        },
        {
          "internalType": "uint256",
          "name": "_serialNumber",
          "type": "uint256"
        }
      ],
      "name": "whitelist",
      "outputs": [],
      "stateMutability": "nonpayable",
      "type": "function"
    }
  ],
  "bytecode": "0x608060405234801561001057600080fd5b5061368c806100206000396000f3fe608060405234801561001057600080fd5b50600436106101215760003560e01c80638da5cb5b116100ad578063a6487c5311610071578063a6487c53146102f2578063b88d4fde1461030e578063c87b56dd1461032a578063e985e9c51461035a578063f2fde38b1461038a57610121565b80638da5cb5b1461026257806395d89b411461028057806398fc55d81461029e578063a0712d68146102ba578063a22cb465146102d657610121565b806323b872dd116100f457806323b872dd146101c057806342842e0e146101dc5780636352211e146101f857806370a0823114610228578063715018a61461025857610121565b806301ffc9a71461012657806306fdde0314610156578063081812fc14610174578063095ea7b3146101a4575b600080fd5b610140600480360381019061013b91906124a7565b6103a6565b60405161014d91906129ec565b60405180910390f35b61015e6103b8565b60405161016b9190612a22565b60405180910390f35b61018e6004803603810190610189919061259d565b61044a565b60405161019b9190612985565b60405180910390f35b6101be60048036038101906101b9919061246b565b6104cf565b005b6101da60048036038101906101d59190612365565b6105e7565b005b6101f660048036038101906101f19190612365565b610647565b005b610212600480360381019061020d919061259d565b610667565b60405161021f9190612985565b60405180910390f35b610242600480360381019061023d9190612300565b610719565b60405161024f9190612cc4565b60405180910390f35b6102606107d1565b005b61026a610859565b6040516102779190612985565b60405180910390f35b610288610883565b6040516102959190612a22565b60405180910390f35b6102b860048036038101906102b3919061246b565b610915565b005b6102d460048036038101906102cf919061259d565b6109fe565b005b6102f060048036038101906102eb919061242f565b610aaa565b005b61030c600480360381019061030791906124f9565b610ac0565b005b610328600480360381019061032391906123b4565b610c27565b005b610344600480360381019061033f919061259d565b610c89565b6040516103519190612a22565b60405180910390f35b610374600480360381019061036f9190612329565b610d30565b60405161038191906129ec565b60405180910390f35b6103a4600480360381019061039f9190612300565b610dc4565b005b60006103b182610ebc565b9050919050565b6060606580546103c790612f08565b80601f01602080910402602001604051908101604052809291908181526020018280546103f390612f08565b80156104405780601f1061041557610100808354040283529160200191610440565b820191906000526020600020905b81548152906001019060200180831161042357829003601f168201915b5050505050905090565b600061045582610f34565b610494576040517f08c379a000000000000000000000000000000000000000000000000000000000815260040161048b90612be4565b60405180910390fd5b6069600083815260200190815260200160002060009054906101000a900473ffffffffffffffffffffffffffffffffffffffff169050919050565b60006104da82610667565b90508073ffffffffffffffffffffffffffffffffffffffff168373ffffffffffffffffffffffffffffffffffffffff16141561054b576040517f08c379a000000000000000000000000000000000000000000000000000000000815260040161054290612c64565b60405180910390fd5b8073ffffffffffffffffffffffffffffffffffffffff1661056a610fa0565b73ffffffffffffffffffffffffffffffffffffffff161480610599575061059881610593610fa0565b610d30565b5b6105d8576040517f08c379a00000000000000000000000000000000000000000000000000000000081526004016105cf90612b44565b60405180910390fd5b6105e28383610fa8565b505050565b6105f86105f2610fa0565b82611061565b610637576040517f08c379a000000000000000000000000000000000000000000000000000000000815260040161062e90612c84565b60405180910390fd5b61064283838361113f565b505050565b61066283838360405180602001604052806000815250610c27565b505050565b6000806067600084815260200190815260200160002060009054906101000a900473ffffffffffffffffffffffffffffffffffffffff169050600073ffffffffffffffffffffffffffffffffffffffff168173ffffffffffffffffffffffffffffffffffffffff161415610710576040517f08c379a000000000000000000000000000000000000000000000000000000000815260040161070790612b84565b60405180910390fd5b80915050919050565b60008073ffffffffffffffffffffffffffffffffffffffff168273ffffffffffffffffffffffffffffffffffffffff16141561078a576040517f08c379a000000000000000000000000000000000000000000000000000000000815260040161078190612b64565b60405180910390fd5b606860008373ffffffffffffffffffffffffffffffffffffffff1673ffffffffffffffffffffffffffffffffffffffff168152602001908152602001600020549050919050565b6107d9610fa0565b73ffffffffffffffffffffffffffffffffffffffff166107f7610859565b73ffffffffffffffffffffffffffffffffffffffff161461084d576040517f08c379a000000000000000000000000000000000000000000000000000000000815260040161084490612c04565b60405180910390fd5b61085760006113a6565b565b6000609760009054906101000a900473ffffffffffffffffffffffffffffffffffffffff16905090565b60606066805461089290612f08565b80601f01602080910402602001604051908101604052809291908181526020018280546108be90612f08565b801561090b5780601f106108e05761010080835404028352916020019161090b565b820191906000526020600020905b8154815290600101906020018083116108ee57829003601f168201915b5050505050905090565b61091d610fa0565b73ffffffffffffffffffffffffffffffffffffffff1661093b610859565b73ffffffffffffffffffffffffffffffffffffffff1614610991576040517f08c379a000000000000000000000000000000000000000000000000000000000815260040161098890612c04565b60405180910390fd5b600160fb60008473ffffffffffffffffffffffffffffffffffffffff1673ffffffffffffffffffffffffffffffffffffffff168152602001908152602001600020600083815260200190815260200160002060006101000a81548160ff0219169083151502179055505050565b8060fb60003373ffffffffffffffffffffffffffffffffffffffff1673ffffffffffffffffffffffffffffffffffffffff168152602001908152602001600020600082815260200190815260200160002060009054906101000a900460ff16610a9c576040517f08c379a0000000000000000000000000000000000000000000000000000000008152600401610a9390612c44565b60405180910390fd5b610aa6338361146c565b5050565b610abc610ab5610fa0565b8383611646565b5050565b6000610acc60016117b3565b90508015610af0576001600060016101000a81548160ff0219169083151502179055505b610b8287878080601f016020809104026020016040519081016040528093929190818152602001838380828437600081840152601f19601f8201169050808301925050505050505086868080601f016020809104026020016040519081016040528093929190818152602001838380828437600081840152601f19601f820116905080830192505050505050506118a3565b610b8a611900565b610bb37f9ec504e300000000000000000000000000000000000000000000000000000000611959565b828260fc9190610bc49291906120bc565b508015610c1e5760008060016101000a81548160ff0219169083151502179055507f7f26b83ff96e1f2b6a682f133852f6798a09c465da95921460cefb38474024986001604051610c159190612a07565b60405180910390a15b50505050505050565b610c38610c32610fa0565b83611061565b610c77576040517f08c379a0000000000000000000000000000000000000000000000000000000008152600401610c6e90612c84565b60405180910390fd5b610c8384848484611a2f565b50505050565b6060610c9482610f34565b610cd3576040517f08c379a0000000000000000000000000000000000000000000000000000000008152600401610cca90612c24565b60405180910390fd5b6000610cdd611a8b565b90506000815111610cfd5760405180602001604052806000815250610d28565b80610d0784611b1d565b604051602001610d18929190612961565b6040516020818303038152906040525b915050919050565b6000606a60008473ffffffffffffffffffffffffffffffffffffffff1673ffffffffffffffffffffffffffffffffffffffff16815260200190815260200160002060008373ffffffffffffffffffffffffffffffffffffffff1673ffffffffffffffffffffffffffffffffffffffff16815260200190815260200160002060009054906101000a900460ff16905092915050565b610dcc610fa0565b73ffffffffffffffffffffffffffffffffffffffff16610dea610859565b73ffffffffffffffffffffffffffffffffffffffff1614610e40576040517f08c379a0000000000000000000000000000000000000000000000000000000008152600401610e3790612c04565b60405180910390fd5b600073ffffffffffffffffffffffffffffffffffffffff168173ffffffffffffffffffffffffffffffffffffffff161415610eb0576040517f08c379a0000000000000000000000000000000000000000000000000000000008152600401610ea790612a64565b60405180910390fd5b610eb9816113a6565b50565b6000610ec782611cca565b80610f2d575060c96000837bffffffffffffffffffffffffffffffffffffffffffffffffffffffff19167bffffffffffffffffffffffffffffffffffffffffffffffffffffffff1916815260200190815260200160002060009054906101000a900460ff165b9050919050565b60008073ffffffffffffffffffffffffffffffffffffffff166067600084815260200190815260200160002060009054906101000a900473ffffffffffffffffffffffffffffffffffffffff1673ffffffffffffffffffffffffffffffffffffffff1614159050919050565b600033905090565b816069600083815260200190815260200160002060006101000a81548173ffffffffffffffffffffffffffffffffffffffff021916908373ffffffffffffffffffffffffffffffffffffffff160217905550808273ffffffffffffffffffffffffffffffffffffffff1661101b83610667565b73ffffffffffffffffffffffffffffffffffffffff167f8c5be1e5ebec7d5bd14f71427d1e84f3dd0314c0f7b2291e5b200ac8c7c3b92560405160405180910390a45050565b600061106c82610f34565b6110ab576040517f08c379a00000000000000000000000000000000000000000000000000000000081526004016110a290612b24565b60405180910390fd5b60006110b683610667565b90508073ffffffffffffffffffffffffffffffffffffffff168473ffffffffffffffffffffffffffffffffffffffff1614806110f857506110f78185610d30565b5b8061113657508373ffffffffffffffffffffffffffffffffffffffff1661111e8461044a565b73ffffffffffffffffffffffffffffffffffffffff16145b91505092915050565b8273ffffffffffffffffffffffffffffffffffffffff1661115f82610667565b73ffffffffffffffffffffffffffffffffffffffff16146111b5576040517f08c379a00000000000000000000000000000000000000000000000000000000081526004016111ac90612a84565b60405180910390fd5b600073ffffffffffffffffffffffffffffffffffffffff168273ffffffffffffffffffffffffffffffffffffffff161415611225576040517f08c379a000000000000000000000000000000000000000000000000000000000815260040161121c90612ae4565b60405180910390fd5b611230838383611dac565b61123b600082610fa8565b6001606860008573ffffffffffffffffffffffffffffffffffffffff1673ffffffffffffffffffffffffffffffffffffffff168152602001908152602001600020600082825461128b9190612dff565b925050819055506001606860008473ffffffffffffffffffffffffffffffffffffffff1673ffffffffffffffffffffffffffffffffffffffff16815260200190815260200160002060008282546112e29190612d78565b92505081905550816067600083815260200190815260200160002060006101000a81548173ffffffffffffffffffffffffffffffffffffffff021916908373ffffffffffffffffffffffffffffffffffffffff160217905550808273ffffffffffffffffffffffffffffffffffffffff168473ffffffffffffffffffffffffffffffffffffffff167fddf252ad1be2c89b69c2b068fc378daa952ba7f163c4a11628f55a4df523b3ef60405160405180910390a46113a1838383611db1565b505050565b6000609760009054906101000a900473ffffffffffffffffffffffffffffffffffffffff16905081609760006101000a81548173ffffffffffffffffffffffffffffffffffffffff021916908373ffffffffffffffffffffffffffffffffffffffff1602179055508173ffffffffffffffffffffffffffffffffffffffff168173ffffffffffffffffffffffffffffffffffffffff167f8be0079c531659141344cd1fd0a4f28419497f9722a3daafe3b4186f6b6457e060405160405180910390a35050565b600073ffffffffffffffffffffffffffffffffffffffff168273ffffffffffffffffffffffffffffffffffffffff1614156114dc576040517f08c379a00000000000000000000000000000000000000000000000000000000081526004016114d390612bc4565b60405180910390fd5b6114e581610f34565b15611525576040517f08c379a000000000000000000000000000000000000000000000000000000000815260040161151c90612ac4565b60405180910390fd5b61153160008383611dac565b6001606860008473ffffffffffffffffffffffffffffffffffffffff1673ffffffffffffffffffffffffffffffffffffffff16815260200190815260200160002060008282546115819190612d78565b92505081905550816067600083815260200190815260200160002060006101000a81548173ffffffffffffffffffffffffffffffffffffffff021916908373ffffffffffffffffffffffffffffffffffffffff160217905550808273ffffffffffffffffffffffffffffffffffffffff16600073ffffffffffffffffffffffffffffffffffffffff167fddf252ad1be2c89b69c2b068fc378daa952ba7f163c4a11628f55a4df523b3ef60405160405180910390a461164260008383611db1565b5050565b8173ffffffffffffffffffffffffffffffffffffffff168373ffffffffffffffffffffffffffffffffffffffff1614156116b5576040517f08c379a00000000000000000000000000000000000000000000000000000000081526004016116ac90612b04565b60405180910390fd5b80606a60008573ffffffffffffffffffffffffffffffffffffffff1673ffffffffffffffffffffffffffffffffffffffff16815260200190815260200160002060008473ffffffffffffffffffffffffffffffffffffffff1673ffffffffffffffffffffffffffffffffffffffff16815260200190815260200160002060006101000a81548160ff0219169083151502179055508173ffffffffffffffffffffffffffffffffffffffff168373ffffffffffffffffffffffffffffffffffffffff167f17307eab39ab6107e8899845ad3d59bd9653f200f220920489ca2b5937696c31836040516117a691906129ec565b60405180910390a3505050565b60008060019054906101000a900460ff161561182a5760018260ff161480156117e257506117e030611db6565b155b611821576040517f08c379a000000000000000000000000000000000000000000000000000000000815260040161181890612ba4565b60405180910390fd5b6000905061189e565b8160ff1660008054906101000a900460ff1660ff161061187f576040517f08c379a000000000000000000000000000000000000000000000000000000000815260040161187690612ba4565b60405180910390fd5b816000806101000a81548160ff021916908360ff160217905550600190505b919050565b600060019054906101000a900460ff166118f2576040517f08c379a00000000000000000000000000000000000000000000000000000000081526004016118e990612ca4565b60405180910390fd5b6118fc8282611dd9565b5050565b600060019054906101000a900460ff1661194f576040517f08c379a000000000000000000000000000000000000000000000000000000000815260040161194690612ca4565b60405180910390fd5b611957611e5a565b565b63ffffffff60e01b817bffffffffffffffffffffffffffffffffffffffffffffffffffffffff191614156119c2576040517f08c379a00000000000000000000000000000000000000000000000000000000081526004016119b990612aa4565b60405180910390fd5b600160c96000837bffffffffffffffffffffffffffffffffffffffffffffffffffffffff19167bffffffffffffffffffffffffffffffffffffffffffffffffffffffff1916815260200190815260200160002060006101000a81548160ff02191690831515021790555050565b611a3a84848461113f565b611a4684848484611ebb565b611a85576040517f08c379a0000000000000000000000000000000000000000000000000000000008152600401611a7c90612a44565b60405180910390fd5b50505050565b606060fc8054611a9a90612f08565b80601f0160208091040260200160405190810160405280929190818152602001828054611ac690612f08565b8015611b135780601f10611ae857610100808354040283529160200191611b13565b820191906000526020600020905b815481529060010190602001808311611af657829003601f168201915b5050505050905090565b60606000821415611b65576040518060400160405280600181526020017f30000000000000000000000000000000000000000000000000000000000000008152509050611cc5565b600082905060005b60008214611b97578080611b8090612f6b565b915050600a82611b909190612dce565b9150611b6d565b60008167ffffffffffffffff811115611bd9577f4e487b7100000000000000000000000000000000000000000000000000000000600052604160045260246000fd5b6040519080825280601f01601f191660200182016040528015611c0b5781602001600182028036833780820191505090505b5090505b60008514611cbe57600182611c249190612dff565b9150600a85611c339190612fb4565b6030611c3f9190612d78565b60f81b818381518110611c7b577f4e487b7100000000000000000000000000000000000000000000000000000000600052603260045260246000fd5b60200101907effffffffffffffffffffffffffffffffffffffffffffffffffffffffffffff1916908160001a905350600a85611cb79190612dce565b9450611c0f565b8093505050505b919050565b60007f80ac58cd000000000000000000000000000000000000000000000000000000007bffffffffffffffffffffffffffffffffffffffffffffffffffffffff1916827bffffffffffffffffffffffffffffffffffffffffffffffffffffffff19161480611d9557507f5b5e139f000000000000000000000000000000000000000000000000000000007bffffffffffffffffffffffffffffffffffffffffffffffffffffffff1916827bffffffffffffffffffffffffffffffffffffffffffffffffffffffff1916145b80611da55750611da482612052565b5b9050919050565b505050565b505050565b6000808273ffffffffffffffffffffffffffffffffffffffff163b119050919050565b600060019054906101000a900460ff16611e28576040517f08c379a0000000000000000000000000000000000000000000000000000000008152600401611e1f90612ca4565b60405180910390fd5b8160659080519060200190611e3e929190612142565b508060669080519060200190611e55929190612142565b505050565b600060019054906101000a900460ff16611ea9576040517f08c379a0000000000000000000000000000000000000000000000000000000008152600401611ea090612ca4565b60405180910390fd5b611eb9611eb4610fa0565b6113a6565b565b6000611edc8473ffffffffffffffffffffffffffffffffffffffff16611db6565b15612045578373ffffffffffffffffffffffffffffffffffffffff1663150b7a02611f05610fa0565b8786866040518563ffffffff1660e01b8152600401611f2794939291906129a0565b602060405180830381600087803b158015611f4157600080fd5b505af1925050508015611f7257506040513d601f19601f82011682018060405250810190611f6f91906124d0565b60015b611ff5573d8060008114611fa2576040519150601f19603f3d011682016040523d82523d6000602084013e611fa7565b606091505b50600081511415611fed576040517f08c379a0000000000000000000000000000000000000000000000000000000008152600401611fe490612a44565b60405180910390fd5b805181602001fd5b63150b7a0260e01b7bffffffffffffffffffffffffffffffffffffffffffffffffffffffff1916817bffffffffffffffffffffffffffffffffffffffffffffffffffffffff19161491505061204a565b600190505b949350505050565b60007f01ffc9a7000000000000000000000000000000000000000000000000000000007bffffffffffffffffffffffffffffffffffffffffffffffffffffffff1916827bffffffffffffffffffffffffffffffffffffffffffffffffffffffff1916149050919050565b8280546120c890612f08565b90600052602060002090601f0160209004810192826120ea5760008555612131565b82601f1061210357803560ff1916838001178555612131565b82800160010185558215612131579182015b82811115612130578235825591602001919060010190612115565b5b50905061213e91906121c8565b5090565b82805461214e90612f08565b90600052602060002090601f01602090048101928261217057600085556121b7565b82601f1061218957805160ff19168380011785556121b7565b828001600101855582156121b7579182015b828111156121b657825182559160200191906001019061219b565b5b5090506121c491906121c8565b5090565b5b808211156121e15760008160009055506001016121c9565b5090565b60006121f86121f384612d04565b612cdf565b90508281526020810184848401111561221057600080fd5b61221b848285612ec6565b509392505050565b600081359050612232816135fa565b92915050565b60008135905061224781613611565b92915050565b60008135905061225c81613628565b92915050565b60008151905061227181613628565b92915050565b600082601f83011261228857600080fd5b81356122988482602086016121e5565b91505092915050565b60008083601f8401126122b357600080fd5b8235905067ffffffffffffffff8111156122cc57600080fd5b6020830191508360018202830111156122e457600080fd5b9250929050565b6000813590506122fa8161363f565b92915050565b60006020828403121561231257600080fd5b600061232084828501612223565b91505092915050565b6000806040838503121561233c57600080fd5b600061234a85828601612223565b925050602061235b85828601612223565b9150509250929050565b60008060006060848603121561237a57600080fd5b600061238886828701612223565b935050602061239986828701612223565b92505060406123aa868287016122eb565b9150509250925092565b600080600080608085870312156123ca57600080fd5b60006123d887828801612223565b94505060206123e987828801612223565b93505060406123fa878288016122eb565b925050606085013567ffffffffffffffff81111561241757600080fd5b61242387828801612277565b91505092959194509250565b6000806040838503121561244257600080fd5b600061245085828601612223565b925050602061246185828601612238565b9150509250929050565b6000806040838503121561247e57600080fd5b600061248c85828601612223565b925050602061249d858286016122eb565b9150509250929050565b6000602082840312156124b957600080fd5b60006124c78482850161224d565b91505092915050565b6000602082840312156124e257600080fd5b60006124f084828501612262565b91505092915050565b6000806000806000806060878903121561251257600080fd5b600087013567ffffffffffffffff81111561252c57600080fd5b61253889828a016122a1565b9650965050602087013567ffffffffffffffff81111561255757600080fd5b61256389828a016122a1565b9450945050604087013567ffffffffffffffff81111561258257600080fd5b61258e89828a016122a1565b92509250509295509295509295565b6000602082840312156125af57600080fd5b60006125bd848285016122eb565b91505092915050565b6125cf81612e33565b82525050565b6125de81612e45565b82525050565b60006125ef82612d35565b6125f98185612d4b565b9350612609818560208601612ed5565b612612816130a1565b840191505092915050565b61262681612eb4565b82525050565b600061263782612d40565b6126418185612d5c565b9350612651818560208601612ed5565b61265a816130a1565b840191505092915050565b600061267082612d40565b61267a8185612d6d565b935061268a818560208601612ed5565b80840191505092915050565b60006126a3603283612d5c565b91506126ae826130b2565b604082019050919050565b60006126c6602683612d5c565b91506126d182613101565b604082019050919050565b60006126e9602583612d5c565b91506126f482613150565b604082019050919050565b600061270c601c83612d5c565b91506127178261319f565b602082019050919050565b600061272f601c83612d5c565b915061273a826131c8565b602082019050919050565b6000612752602483612d5c565b915061275d826131f1565b604082019050919050565b6000612775601983612d5c565b915061278082613240565b602082019050919050565b6000612798602c83612d5c565b91506127a382613269565b604082019050919050565b60006127bb603883612d5c565b91506127c6826132b8565b604082019050919050565b60006127de602a83612d5c565b91506127e982613307565b604082019050919050565b6000612801602983612d5c565b915061280c82613356565b604082019050919050565b6000612824602e83612d5c565b915061282f826133a5565b604082019050919050565b6000612847602083612d5c565b9150612852826133f4565b602082019050919050565b600061286a602c83612d5c565b91506128758261341d565b604082019050919050565b600061288d602083612d5c565b91506128988261346c565b602082019050919050565b60006128b0602f83612d5c565b91506128bb82613495565b604082019050919050565b60006128d3601683612d5c565b91506128de826134e4565b602082019050919050565b60006128f6602183612d5c565b91506129018261350d565b604082019050919050565b6000612919603183612d5c565b91506129248261355c565b604082019050919050565b600061293c602b83612d5c565b9150612947826135ab565b604082019050919050565b61295b81612e9d565b82525050565b600061296d8285612665565b91506129798284612665565b91508190509392505050565b600060208201905061299a60008301846125c6565b92915050565b60006080820190506129b560008301876125c6565b6129c260208301866125c6565b6129cf6040830185612952565b81810360608301526129e181846125e4565b905095945050505050565b6000602082019050612a0160008301846125d5565b92915050565b6000602082019050612a1c600083018461261d565b92915050565b60006020820190508181036000830152612a3c818461262c565b905092915050565b60006020820190508181036000830152612a5d81612696565b9050919050565b60006020820190508181036000830152612a7d816126b9565b9050919050565b60006020820190508181036000830152612a9d816126dc565b9050919050565b60006020820190508181036000830152612abd816126ff565b9050919050565b60006020820190508181036000830152612add81612722565b9050919050565b60006020820190508181036000830152612afd81612745565b9050919050565b60006020820190508181036000830152612b1d81612768565b9050919050565b60006020820190508181036000830152612b3d8161278b565b9050919050565b60006020820190508181036000830152612b5d816127ae565b9050919050565b60006020820190508181036000830152612b7d816127d1565b9050919050565b60006020820190508181036000830152612b9d816127f4565b9050919050565b60006020820190508181036000830152612bbd81612817565b9050919050565b60006020820190508181036000830152612bdd8161283a565b9050919050565b60006020820190508181036000830152612bfd8161285d565b9050919050565b60006020820190508181036000830152612c1d81612880565b9050919050565b60006020820190508181036000830152612c3d816128a3565b9050919050565b60006020820190508181036000830152612c5d816128c6565b9050919050565b60006020820190508181036000830152612c7d816128e9565b9050919050565b60006020820190508181036000830152612c9d8161290c565b9050919050565b60006020820190508181036000830152612cbd8161292f565b9050919050565b6000602082019050612cd96000830184612952565b92915050565b6000612ce9612cfa565b9050612cf58282612f3a565b919050565b6000604051905090565b600067ffffffffffffffff821115612d1f57612d1e613072565b5b612d28826130a1565b9050602081019050919050565b600081519050919050565b600081519050919050565b600082825260208201905092915050565b600082825260208201905092915050565b600081905092915050565b6000612d8382612e9d565b9150612d8e83612e9d565b9250827fffffffffffffffffffffffffffffffffffffffffffffffffffffffffffffffff03821115612dc357612dc2612fe5565b5b828201905092915050565b6000612dd982612e9d565b9150612de483612e9d565b925082612df457612df3613014565b5b828204905092915050565b6000612e0a82612e9d565b9150612e1583612e9d565b925082821015612e2857612e27612fe5565b5b828203905092915050565b6000612e3e82612e7d565b9050919050565b60008115159050919050565b60007fffffffff0000000000000000000000000000000000000000000000000000000082169050919050565b600073ffffffffffffffffffffffffffffffffffffffff82169050919050565b6000819050919050565b600060ff82169050919050565b6000612ebf82612ea7565b9050919050565b82818337600083830152505050565b60005b83811015612ef3578082015181840152602081019050612ed8565b83811115612f02576000848401525b50505050565b60006002820490506001821680612f2057607f821691505b60208210811415612f3457612f33613043565b5b50919050565b612f43826130a1565b810181811067ffffffffffffffff82111715612f6257612f61613072565b5b80604052505050565b6000612f7682612e9d565b91507fffffffffffffffffffffffffffffffffffffffffffffffffffffffffffffffff821415612fa957612fa8612fe5565b5b600182019050919050565b6000612fbf82612e9d565b9150612fca83612e9d565b925082612fda57612fd9613014565b5b828206905092915050565b7f4e487b7100000000000000000000000000000000000000000000000000000000600052601160045260246000fd5b7f4e487b7100000000000000000000000000000000000000000000000000000000600052601260045260246000fd5b7f4e487b7100000000000000000000000000000000000000000000000000000000600052602260045260246000fd5b7f4e487b7100000000000000000000000000000000000000000000000000000000600052604160045260246000fd5b6000601f19601f8301169050919050565b7f4552433732313a207472616e7366657220746f206e6f6e20455243373231526560008201527f63656976657220696d706c656d656e7465720000000000000000000000000000602082015250565b7f4f776e61626c653a206e6577206f776e657220697320746865207a65726f206160008201527f6464726573730000000000000000000000000000000000000000000000000000602082015250565b7f4552433732313a207472616e736665722066726f6d20696e636f72726563742060008201527f6f776e6572000000000000000000000000000000000000000000000000000000602082015250565b7f4552433136353a20696e76616c696420696e7465726661636520696400000000600082015250565b7f4552433732313a20746f6b656e20616c7265616479206d696e74656400000000600082015250565b7f4552433732313a207472616e7366657220746f20746865207a65726f2061646460008201527f7265737300000000000000000000000000000000000000000000000000000000602082015250565b7f4552433732313a20617070726f766520746f2063616c6c657200000000000000600082015250565b7f4552433732313a206f70657261746f7220717565727920666f72206e6f6e657860008201527f697374656e7420746f6b656e0000000000000000000000000000000000000000602082015250565b7f4552433732313a20617070726f76652063616c6c6572206973206e6f74206f7760008201527f6e6572206e6f7220617070726f76656420666f7220616c6c0000000000000000602082015250565b7f4552433732313a2062616c616e636520717565727920666f7220746865207a6560008201527f726f206164647265737300000000000000000000000000000000000000000000602082015250565b7f4552433732313a206f776e657220717565727920666f72206e6f6e657869737460008201527f656e7420746f6b656e0000000000000000000000000000000000000000000000602082015250565b7f496e697469616c697a61626c653a20636f6e747261637420697320616c72656160008201527f647920696e697469616c697a6564000000000000000000000000000000000000602082015250565b7f4552433732313a206d696e7420746f20746865207a65726f2061646472657373600082015250565b7f4552433732313a20617070726f76656420717565727920666f72206e6f6e657860008201527f697374656e7420746f6b656e0000000000000000000000000000000000000000602082015250565b7f4f776e61626c653a2063616c6c6572206973206e6f7420746865206f776e6572600082015250565b7f4552433732314d657461646174613a2055524920717565727920666f72206e6f60008201527f6e6578697374656e7420746f6b656e0000000000000000000000000000000000602082015250565b7f546f6b656e3a206e6f742077686974656c697374656400000000000000000000600082015250565b7f4552433732313a20617070726f76616c20746f2063757272656e74206f776e6560008201527f7200000000000000000000000000000000000000000000000000000000000000602082015250565b7f4552433732313a207472616e736665722063616c6c6572206973206e6f74206f60008201527f776e6572206e6f7220617070726f766564000000000000000000000000000000602082015250565b7f496e697469616c697a61626c653a20636f6e7472616374206973206e6f74206960008201527f6e697469616c697a696e67000000000000000000000000000000000000000000602082015250565b61360381612e33565b811461360e57600080fd5b50565b61361a81612e45565b811461362557600080fd5b50565b61363181612e51565b811461363c57600080fd5b50565b61364881612e9d565b811461365357600080fd5b5056fea2646970667358221220d9163bef39871e4dfae95d9407da3966b08584ef31d43ec45df3f4663959979f64736f6c63430008040033",
  "linkReferences": {},
  "deployedLinkReferences": {}
}